:040000005BEF00F0C2
:0C000800FACF89F0FBCF8AF0A2EF0AF0DB
:10001800D8CF06F0E8CF07F0E0CF08F0FACF09F024
:10002800FBCF0AF0E9CF0BF0EACF0CF0E1CF0DF0EF
:10003800E2CF0EF0D9CF0FF0DACF10F0F3CF11F0F6
:10004800F4CF12F0F6CF13F0F7CF14F0F8CF15F085
:10005800F5CF16F09EA003D09E90C4EC0DF09EB88C
:100068009DA802D016EC0AF016C0F5FF15C0F8FFDF
:1000780014C0F7FF13C0F6FF12C0F4FF11C0F3FF5E
:1000880010C0DAFF0FC0D9FF0EC0E2FF0DC0E1FFBC
:100098000CC0EAFF0BC0E9FF0AC0FBFF09C0FAFF6A
:1000A80008C0E0FF07C0E8FF06C0D8FF100033EF24
:0200B8000CF04A
:1004000000260000316E000E00010001886F31509F
:10041000316E000E00010001836F3150316E000E0D
:1004200000010001876F3150316E000E00010001A4
:10043000856F3150316E000E00010001846F315024
:10044000C6AC27D0C69C000120EE0CF00001C351C1
:10045000D9260001C451DA22050EDF6E316E010E7D
:1004600000010001846F3150000120EE0EF0000108
:10047000C351D9260001C451DA22DF2A000120EE3F
:100480000DF00001C351D9260001C451DA22040E37
:10049000DF6EC7A008D0C9CF86F0316E010E000113
:1004A0000001886F3150000100018467B8D1A1D1EB
:1004B000C7A6B5D100010001885114EC09F0000174
:1004C00020EE0CF00001C351D9260001C451DA22FC
:1004D000080EDF62A4D1316E000E00010001886FAA
:1004E0003150316E010E00010001856F75D1C7A832
:1004F0002ED0000120EE0BF00001C351D9260001DF
:10050000C451DA22DF2A000100018851D8B466D133
:10051000C7BA07D0316E010E00010001876F31505C
:100520005DD1000120EE0EF00001C351D92600017B
:10053000C451DA22DF2A000120EE0DF00001C35180
:10054000D9260001C451DA22060EDF6E47D1000120
:1005500000018851D8B463D1000120EE0BF00001F6
:10056000C351D9260001C451DA22DF2AC7BA19D0F3
:10057000C7B40BD0000120EE0CF00001C351D92606
:100580000001C451DA22070E71D0000120EE0CF0F8
:100590000001C351D9260001C451DA22080EDF6ED2
:1005A00010D1000120EE0EF00001C351D926000148
:1005B000C451DA22DF2A000120EE0CF00001C35101
:1005C000D9260001C451DA22050EDF6E000120EEAB
:1005D0000DF00001C351D9260001C451DA22060EE4
:1005E00045D0000120EE1AF00001C351D9260001C8
:1005F000C451DA22DF50316E000120EE19F0000103
:10060000C351D9260001C451DA22DF50315CD8B081
:10061000E5D0000120EE1AF00001C351D9260001F7
:10062000C451DA22DF50316E3150010D0F0EF32626
:10063000000EF422F35000010001C325D96EF450DE
:1006400000010001C421DA6EDF50C96E000120EE06
:100650001AF00001C351D9260001C451DA22DF2A61
:10066000316E010E00010001836FB6D0DF6ED7D06E
:10067000C7A85ED0000120EE0BF00001C351D926BF
:100680000001C451DA22DF2A000100018851D8B4E8
:1006900048D0C7AA25D0000120EE0AF00001C351BE
:1006A000D9260001C451DA22DF50316E3150010DDC
:1006B000F35000010001C325D96EF4500001000180
:1006C000C421DA6E000186C0DFFF000120EE0AF0CF
:1006D0000001C351D9260001C451DA22DF2A21D0FA
:1006E000000120EE0EF00001C351D9260001C451D3
:1006F000DA22DF2A000120EE0DF00001C351D926D5
:100700000001C451DA22060EDF6E000120EE0CF06B
:100710000001C351D9260001C451DA22050EDF6E53
:100720005DD0316E010E00010001876F315056D04F
:10073000000100018851D8B472D0000120EE0BF006
:100740000001C351D9260001C451DA22DF2AC7AA09
:1007500025D0000120EE0AF00001C351D926000186
:10076000C451DA22DF50316E3150010DF3500001D7
:100770000001C325D96EF45000010001C421DA6ED6
:10078000000186C0DFFF000120EE0AF00001C35126
:10079000D9260001C451DA22DF2A41D0C7A4C1D62C
:1007A000000120EE0CF00001C351D9260001C45114
:1007B000DA22080EDF6E316E010E00010001876F34
:1007C0003150316E010E00010001856F3150316EE4
:1007D000000E00010001886F315021D0000120EE91
:1007E0000CF00001C351D9260001C451DA22050ED4
:1007F0003DD7000120EE0CF00001C351D9260001C5
:10080000C451DA22DF50050AD8B452D6030AD8B44C
:100810006ED6010AD8B42CD70F0AD8B4E2D600019C
:100820000001886705D0000100018351D8B402D0CF
:10083000C6A8C688000120EE0AF00001C351D926DF
:100840000001C451DA22080EDF6424D00001000147
:10085000876720D0000120EE0CF00001C351D9269B
:100860000001C451DA22050EDF6E000120EE0EF009
:100870000001C351D9260001C451DA22DF2A000148
:1008800020EE0DF00001C351D9260001C451DA2237
:10089000070EDF6E000100018751D8B440D0898077
:1008A0008990000120EE0BF00001C351D926000110
:1008B000C451DA22000110EE0AF00001C351E12612
:1008C0000001C451E222E750316E3150010DF35066
:1008D00000010001C325E16EF45000010001C421B4
:1008E000E26EDFCFE7FF316E280E2D6E3150000132
:1008F000C4C02FF00001C3C02EF0000120EE0AF0AA
:100900000001C351D9260001C451DA22DF50326EF2
:10091000322816EC0EF0000120EE0AF043D0000160
:1009200020EE0EF00001C351D9260001C451DA2295
:10093000DF50D8B43FD0000120EE0EF00001C351CB
:10094000D9260001C451DA22DF5000010001806F76
:10095000000120EE0DF00001C351D9260001C45161
:10096000DA22DF5000010001816F000120EE0BF060
:100970000001C351D9260001C451DA22DF50000121
:100980000001826F316E290E2D6E31500001000E74
:100990002F6E0001800E2E6E030E16EC0EF000017D
:1009A00020EE0EF00001C351D9260001C451DA2215
:1009B000000EDF6E000100018551D8B4120028EC52
:1009C0000DF012000001BB6F000E020102010B6F5F
:1009D0000001BB510001BB6F000E020102010C6F50
:1009E0000001BB510001BB6F000E020102010D6F3F
:1009F0000001BB51820ED36E9B8C0201020E0001DE
:100A00000001986F0201140E00010001976FEEECD7
:100A10000DF00201020E00010001986F0201220E8A
:100A200000010001976FCFEC0BF00201020E0001F4
:100A30000001986F0201120E00010001976F59EC3E
:100A40000EF098EC0BF08168000E926E000E896E2D
:100A5000FF0EAFEC0DF0C70E46EC0DF0FF0E0001DF
:100A60000001986FCF0E0001976F6BEC0EF09F9016
:100A70009F989F869E0E02EC0EF09D869D8A000E2A
:100A800000010001986F9B0E0001976F7C0ECDEC6A
:100A900009F0B896AB8EAB88000E00010001BD6F67
:100AA000000E0001BC6F93EC0EF0E3EC0AF00201C3
:100AB000020E00010001B06F0201210E00010001D1
:100AC000AF6F0201020E00010001B26F0201000EC1
:100AD00000010001B16F0A0EE7EC0CF00201020107
:100AE000206F0201020120BF5CD052D00201020E31
:100AF00000010001986F0201100E00010001976FC4
:100B00000201000121C299F0000100019A6B02016B
:100B100002012051000100019B6F00019C6B00014C
:100B20009BBF9C070201020E000100019E6F0201A3
:100B3000000E000100019D6F50EC0EF032D002015A
:100B4000020E000100019D6F02010E0E0001000166
:100B50009C6F0201000121C29EF0000100019F6B09
:100B600002010201205100010001A06F0001A16BF0
:100B70000001A0BFA1070201020E00010001A36F46
:100B80000201000E00010001A26FB0EC08F009D0D4
:100B90000201020121510A0AD8B4A8D7220AD8B406
:100BA000CED70201020E00010001B06F0201210E3A
:100BB00000010001AF6F0201020E00010001B26FDF
:100BC0000201000E00010001B16F0A0EC6EC0CF02C
:100BD00002010201206F0201020120BF66D729D065
:100BE0000201020E00010001B26F0201120E0001AB
:100BF0000001B16F0201000121C2B3F00001000148
:100C0000B46B02010201205100010001B56F000127
:100C1000B66B0001B5BFB6070201020E000100016C
:100C2000B86F0201000E00010001B76F5FEC0BF01E
:100C30003CD70201020121510B0AD8B4D1D7150AC1
:100C400034D7000120EE35F00001A151D926000172
:100C5000A251DA22DF5000010001AA6F0001000159
:100C6000AA510D0DF35000010001A1250001000162
:100C7000AD6FF45000010001A2210001AE6F010E22
:100C8000ADC0D9FFAEC0DAFFDF6274D0000120EE44
:100C900001F00001AD51D9260001AE51DA22DF503A
:100CA00000010001A35DD8B002D0FD0E12000001CA
:100CB00020EE01F00001AD51D9260001AE51DA223B
:100CC000DF500001A86F0001A85100010001AB6FC7
:100CD0000001AC6B00010001A7C098F00001000109
:100CE000A6C097F0030E00010001AD250001A86F1A
:100CF000000E00010001AE210001A96FA8C099F00B
:100D0000A9C09AF0ABC09BF0ACC09CF004EC0CF016
:100D1000000120EE35F00001A151D9260001A251B9
:100D2000DA22000110EE35F00001A151E1260001A8
:100D3000A251E222E7500001A86F0001A829030B8D
:100D4000DF6E000120EE02F00001AD51D926000156
:100D5000AE51DA22A4C0E1FFA5C0E2FFDFCFE7FF7A
:100D6000ADC0D9FFAEC0DAFF000EDF6E000100019A
:100D7000AB511200FC0E1200E8CF9BF0000120EEF8
:100D800019F00001C351D9260001C451DA22000E26
:100D9000DF6E42D0000120EE19F00001C351D926C8
:100DA0000001C451DA22DF500001996F000199510E
:100DB000010DF350000100019725D96EF450000198
:100DC00000019821DA6E000110EE19F00001C35104
:100DD000E1260001C451E222E75000019A6F0001B0
:100DE0009A51010D0F0EF326000EF422F35000016C
:100DF0000001C325E16EF45000010001C421E26E40
:100E0000DFCFE7FF000120EE19F00001C351D92622
:100E10000001C451DA22DF2A000120EE19F000019E
:100E2000C351D9260001C451DA22DF500001996F65
:100E3000000100019B510001995DD8A0ABD70001D2
:100E400020EE19F00001C351D9260001C451DA2265
:100E500000019BC0DFFF000120EE1AF00001C3512A
:100E6000D9260001C451DA22010EDF6E000120EE06
:100E70000FF00001C351D9260001C451DA22DF501E
:100E8000C96EC688120000010001A3C0A8F00001CD
:100E90000001A96B000120EE34F00001A151D92618
:100EA0000001A251DA22DF5000010001AA6F000107
:100EB0000001AA510D0DF35000010001A125000110
:100EC0000001AB6FF45000010001A2210001AC6FE2
:100ED000ABC0D9FFACC0DAFFDF50D8B402D0FF0EF0
:100EE0001200000120EE01F00001AB51D9260001F3
:100EF000AC51DA220001A3C0DFFF000120EE02F0B6
:100F00000001AB51D9260001AC51DA220001A4C086
:100F1000DFFF030E00010001AB2500010001976F08
:100F2000000E00010001AC210001986F00010001DA
:100F3000A6C09AF000010001A5C099F0A8C09BF0DE
:100F4000A9C09CF004EC0CF0000120EE34F000018C
:100F5000A151D9260001A251DA22000110EE34F08D
:100F60000001A151E1260001A251E222E750000157
:100F7000A76F0001A729030BDF6EABC0D9FFACC080
:100F8000DAFF010EDF6E010E1200E8CF1BF0000148
:100F900020EE19F00001C351D9260001C451DA2214
:100FA000000EDF6E3AD0000120EE19F00001C351AF
:100FB000D9260001C451DA22DF50196E1950010DF3
:100FC000F3501724D96EF4501820DA6E000110EE99
:100FD00019F00001C351E1260001C451E222E7509B
:100FE0001A6E1A50010D0F0EF326000EF422F35064
:100FF00000010001C325E16EF45000010001C4218D
:10100000E26EDFCFE7FF000120EE19F00001C351CF
:10101000D9260001C451DA22DF2A000120EE19F09E
:101020000001C351D9260001C451DA22DF50196EE4
:101030001B50195CD8A0B7D7000120EE19F00001B1
:10104000C351D9260001C451DA221BC0DFFF0001C1
:1010500020EE1AF00001C351D9260001C451DA2252
:10106000010EDF6E000120EE0FF00001C351D92602
:101070000001C451DA22DF50C96EC6881200000197
:1010800020EE0AF00001C551D9260001C651DA222E
:10109000000EDF6E010E99C0D9FF9AC0DAFFDF6241
:1010A0003BD0000120EE04F000019951D926000147
:1010B0009A51DA22DF50D8A42FD0000120EE0BF095
:1010C0000001C551D9260001C651DA22020EDF6E99
:1010D000000120EE02F000019951D92600019A5139
:1010E000DA22C5C0E1FFC6C0E2FFDFCFE7FF0001A3
:1010F00020EE03F000019951D92600019A51DA221D
:10110000000110EE01F00001C551E1260001C651B9
:10111000E222DFCFE7FF1200050E99C0D9FF9AC087
:10112000DAFFDF621200000120EE0BF00001C55172
:10113000D9260001C651DA22020EDF6EC5C0D9FFE2
:10114000C6C0DAFF000EDF6E000120EE01F00001E4
:10115000C551D9260001C651DA22000EDF6E1200F9
:10116000000100019E511E0A9F11D8B41200000117
:1011700000019E51280A9F11D8A41200A2C0D9FFD5
:10118000A3C0DAFFDF50130AD8B412D08982899243
:10119000A0C097F0A1C098F000010001A3C09AF090
:1011A00000010001A2C099F03FEC08F09D881200F8
:1011B00089828992898289920001A46F070E0001B9
:1011C0000001BE6F0001A4510001A46F020E0001D6
:1011D0000001BF6F0001A45153C0C0F055C0C1F061
:1011E0005350551800010001C26F000E00010001AC
:1011F000A16F050E0001A06F0001000E00010001AB
:10120000986F0001BE0E00010001976F0001000100
:10121000A051BCEC06F0000E546E000E536E000E92
:10122000566E000E556E1200E8CF17F0000120EE4A
:101230000BF00001C351D9260001C451DA22010E7E
:10124000DF6E000120EE0AF00001C351D926000133
:10125000C451DA22000EDF6E1750D8B43DD0C7AAB1
:1012600021D0000120EE0CF00001C351D92600016D
:10127000C451DA22050EDF6E000120EE0EF00001EF
:10128000C351D9260001C451DA22DF2A000120EE21
:101290000DF00001C351D9260001C451DA22050E18
:1012A000DF6E1200C7A40CD0000120EE0CF000018C
:1012B000C351D9260001C451DA22080EDF6E120094
:1012C000000120EE0CF00001C351D9260001C451E9
:1012D000DA22070EDF6E1200000120EE0CF0000192
:1012E000C351D9260001C451DA22060EDF6E120066
:1012F00023C028F0296A20EE34F02150D92622504C
:10130000DA22DF502A6E2A500D0DF35021242B6E65
:10131000F45022202C6E2BC0D9FF2CC0DAFFDF50F6
:10132000D8B402D0FF0E120020EE01F02B50D926C7
:101330002C50DA2223C0DFFF20EE02F02B50D926FA
:101340002C50DA2224C0DFFF030E2B24176E000E70
:101350002C20186E26C01AF025C019F028C01BF0EA
:1013600029C01CF008EC0DF020EE34F02150D926F5
:101370002250DA2210EE34F02150E1262250E222EF
:10138000E750276E2728030BDF6E2BC0D9FF2CC038
:10139000DAFF010EDF6E010E1200E8CF9CF0000EA6
:1013A000AC6E000EAB6E000100019CB1AC88000178
:1013B00000019CA302D0AC8CAB8C000100019CB559
:1013C000AC8E000100019CA702D0AB8801D0AB8A93
:1013D000000100019CB9AC849E98000100019CBBF7
:1013E000AB86000100019CAD02D09D8A01D09D9A80
:1013F0009E9A000100019CAF02D09D8801D09D986B
:1014000097C0AFFF000198C099F099C09AF0000111
:101410009B6B00019A51B06EAC8AAB8E949C948EFB
:10142000ACA81200ACBE1200948C1200000120EE99
:101430000AF00001C551D9260001C651DA22000187
:1014400010EE0BF00001C551E1260001C651E22269
:10145000E750DF620DD09D98000120EE0AF00001F8
:10146000C551D9260001C651DA22000EDF6E1200E6
:10147000000120EE0AF00001C551D9260001C65135
:10148000DA22DF50026E0250010DF350000100011C
:10149000C525D96EF45000010001C621DA6EDF5077
:1014A00046EC0EF0000120EE0AF00001C551D926ED
:1014B0000001C651DA22DF2A1200000100019A5110
:1014C0009911D8B43AD000019B6F010E00010001C0
:1014D0009C6F00019B5109D0000100010001D890D0
:1014E00099379A37000100019C2B000100019AAF47
:1014F000F3D700010001995100010001975D00013F
:1015000000019A51000100019859D8A00CD00001A7
:101510000001995100010001975F000100019A51FB
:1015200000010001985B000100010001D8909A338E
:101530009933000100019C2FDCD797C097F098C029
:1015400098F01200E9CF8BF0EACF8CF0E1CF8DF06C
:10155000E2CF8EF0D9CF8FF0DACF90F0F3CF91F0C9
:10156000F4CF92F0F6CF93F0F7CF94F0F8CF95F058
:10157000F5CF96F09EA603D09E9602EC02F0F2A460
:1015800003D0F294D9EC0DF05AEC0CF096C0F5FFB4
:1015900095C0F8FF94C0F7FF93C0F6FF92C0F4FF28
:1015A00091C0F3FF90C0DAFF8FC0D9FF8EC0E2FF79
:1015B0008DC0E1FF8CC0EAFF8BC0E9FF8AC0FBFF52
:1015C00089C0FAFF1100A4EC0CF0000100019C514D
:1015D00000019B11D8B4120000019D6F010E576EDF
:1015E00000019D510101010E00010001986F0101F0
:1015F0006C0E00010001976F7DEC0DF00009D8B46E
:1016000007D000019D6F000E576E00019D51120022
:101610000101010E00010001986F0101A20E0001FD
:101620000001976F7DEC0DF00009D8B407D00001E0
:101630009D6F000E576E00019D5112000A0E3BEC8B
:101640000EF0D0D7000120EE34F000019751D926DA
:1016500000019851DA22000EDF6E000120EE35F015
:1016600000019751D92600019851DA22000EDF6E51
:101670000001996F000E000100019A6F000199515D
:10168000030E000100019A6501D012000001000163
:101690009A510D0DF350000100019725D96EF450B9
:1016A000000100019821DA6E000EDF6E00010001DA
:1016B0009A2B030E000100019A65E8D71200B1C011
:1016C000D9FFB2C0DAFFDE2A000EDD22B1C0D9FF99
:1016D000B2C0DAFF0001DECF97F00001DDCF98F055
:1016E000000E000100019A6F0A0E0001996F5DEC77
:1016F0000AF0000100019751090A00019811D8A4CD
:1017000012000001B96F140E00010001AD6F00015D
:10171000B95100010001B2C0AFF000010001B1C039
:10172000AEF0020E62EC0DF000010001BA6F120083
:1017300000019B6F000E576E00019B510101010ECD
:1017400000010001986F0101A20E00010001976FD6
:1017500022EC0BF00101010E00010001986F010164
:101760006C0E00010001976F22EC0BF00101010EDD
:1017700000010001986F0101360E00010001976F12
:1017800022EC0BF00101010E00010001986F010134
:10179000000E00010001976F22EC0BF01200000117
:1017A000000198C0C4F00001000197C0C3F000011F
:1017B00020EE0AF00001C351D9260001C451DA22FB
:1017C000000EDF6E000120EE0BF00001C351D926A0
:1017D0000001C451DA22000EDF6E000120EE0CF091
:1017E0000001C351D9260001C451DA22050EDF6E73
:1017F000000120EE0EF00001C351D9260001C451B2
:10180000DA22000EDF6E1200000100019AC0A0F083
:101810000001000199C09FF00001000198C09EF0F6
:101820000001000197C09DF012D09FC0D9FFA0C059
:10183000DAFF9DC0E1FF9EC0E2FFDFCFE7FF0001BE
:1018400000019F4BA02B000100019D4B9E2B00012E
:1018500000019B07D8A09C0700019B29D8B49C29B4
:10186000D8B41200E2D701EE00F0D80EEE6AE80616
:10187000FDE100EEBCF0070EEE6AE806FDE100EEC9
:1018800033F0290EEE6AE806FDE10C0EF66E1D0E31
:10189000F76E000EF86E00EE5CF010EE0DF0090031
:1018A000F5CFEEFFE550E150FAE1000EF86E0001D1
:1018B000E2EF04F0576601D0120098EC0DF01A50D8
:1018C0001910D8A412008DEC0EF018501710D8B4CF
:1018D00012000101010E186E01016C0E176E29EC49
:1018E0000EF00009D8A412000101010E186E0101CA
:1018F000A20E176E29EC0EF00009D8B497EC0EF08A
:101900001200F2AC08D0000E000100019A6F000E28
:101910000001996F120062EC0EF000010001985175
:1019200000019711D8B408D0000E000100019A6F91
:10193000000E0001996F1200000E000100019A6F65
:10194000010E0001996F120081EC0CF00001000102
:101950009A5100019911D8A411D062EC0EF0000147
:101960000001985100019711D8A408D0000E000181
:1019700000019C6F010E00019B6F1200000E000120
:1019800000019C6F000E00019B6F1200E8CFB3F0C6
:101990000101010E00010001A26F0101A20E000170
:1019A0000001A16FB3C0A3F000010001B0C0A5F019
:1019B00000010001AFC0A4F000010001B2C0A7F017
:1019C00000010001B1C0A6F021EC06F01200E8CF42
:1019D000B3F00101010E00010001A26F01016C0EC4
:1019E00000010001A16FB3C0A3F000010001B0C06D
:1019F000A5F000010001AFC0A4F000010001B2C0D9
:101A0000A7F000010001B1C0A6F021EC06F0120021
:101A10001AC020F019C01FF018C01EF017C01DF02A
:101A20000ED01FC0D9FF20C0DAFF1DC0E1FF1EC0CD
:101A3000E2FFDFCFE7FF1F4A202A1D4A1E2A1B06AE
:101A4000D8A01C061B28D8B41C28D8B41200E9D78B
:101A5000898089901C6E100E1D6E1C501C6E010E2C
:101A60001E6E1C501C6E040E1F6E1C501C6E040E4D
:101A7000206E1C501C6E040E5A6E1C50000E186E08
:101A80001D0E176E5A50C5EC07F01200E8CF97F004
:101A90000001000197517E0BCD6E0001000197AD52
:101AA00002D0CD8E01D0CD9E000ECF6E000ECE6E38
:101AB0009E900001000197AF02D09D8001D09D90C3
:101AC000CD801200E8CFB0F00101010E000100014D
:101AD000A26F0101000E00010001A16FB0C0A3F0D0
:101AE000ADC0A4F000010001AFC0A6F000010001EC
:101AF000AEC0A5F043EC07F01200000120EE35F077
:101B000000019751D92600019851DA22DF500001D7
:101B1000996F000199510D0DF350000100019725B7
:101B2000D96EF450000100019821DA6EDF501200E6
:101B3000F2AC05D0000E1A6E000E196E12008DEC7C
:101B40000EF018501710D8B405D0000E1A6E000E03
:101B5000196E1200000E1A6E010E196E1200E8CFF7
:101B600097F00001000197517F0BD56E000ED76EE4
:101B7000000ED66EF2940001000197AF02D0F28AF7
:101B800001D0F29AD58E1200554A562AFF0E026EE7
:101B9000CF0E016E74EC0EF05650800A056E605048
:101BA000555C6150800A0558D8A012008986899634
:101BB0001200534A542A000E186ECF0E176E7DEC99
:101BC0000EF05450800A1B6E6250535C6350800AC2
:101BD0001B58D8A0120089848994120000010001CA
:101BE00098C0C6F00001000197C0C5F0000120EECA
:101BF0000AF00001C551D9260001C651DA22000EB3
:101C0000DF6E1200E8CF97F09486948897C0C8FFE3
:101C1000000EC76E000EC66E000EC56E0E0EC6120A
:101C2000C78E94869488C580C68A1200E8CF30F0AB
:101C30000101010E226E01016C0E216E30C023F0F5
:101C40002DC024F02FC026F02EC025F078EC09F02E
:101C5000120020EE35F01750D9261850DA22DF5046
:101C6000196E19500D0DF3501724D96EF450182029
:101C7000DA6EDF501200E8CF97F0FA0E00F0E82E8F
:101C8000FDD700010001972FF8D71200E8CF01F02F
:101C9000ACAC03D0AC9058B2AC8001C0ADFF120028
:101CA000000100019EC0A0F0000100019DC09FF056
:101CB000120097C0D9FF98C0DAFF000EDE6E000E4A
:101CC000DD6E1200000EF2AE010E00010001976FF2
:101CD0000001986B120097C099F098C09AF09AC0D2
:101CE000CFFF99C0CEFF120001C003F002C004F084
:101CF00004C0CFFF03C0CEFF120017C019F018C0F8
:101D00001AF01AC0D7FF19C0D6FF12000100010057
:101D10003C003C00010001000100000EF2AE010E8B
:101D2000176E186A1200D08EF28EF28C1200D38ECB
:041D3000030012009A
:067FF80080F4C5FFFFF15B
:00000001FF
