:040000005BEF00F0C2
:0C000800FACFDBF0FBCFDCF006EF08F0D5
:10001800D8CF1EF0E8CF1FF0E0CF20F0FACF21F0C4
:10002800FBCF22F0E9CF23F0EACF24F0E1CF25F08F
:10003800E2CF26F0D9CF27F0DACF28F0F3CF29F096
:10004800F4CF2AF0F6CF2BF0F7CF2CF0F8CF2DF025
:10005800F5CF2EF09EA003D09E90D9EC0BF09EAA6F
:1000680003D09E9AC3EC08F02EC0F5FF2DC0F8FF10
:100078002CC0F7FF2BC0F6FF2AC0F4FF29C0F3FFFE
:1000880028C0DAFF27C0D9FF26C0E2FF25C0E1FF5C
:1000980024C0EAFF23C0E9FF22C0FBFF21C0FAFF0A
:1000A80020C0E0FF1FC0E8FF1EC0D8FF1000F1EF1E
:1000B8000BF00001D06F000E00010001DA6F0001A3
:1000C800D0510001D06F000E00010001D56F000172
:1000D800D0510001D06F000E00010001D96F00015E
:1000E800D0510001D06F000E00010001D76F000150
:1000F800D0510001D06F000E00010001D66F000141
:10010800D051C6AC20D0C69C20EE0CF05350D92656
:100118005450DA22050EDF6E0001D06F010E000187
:100128000001D66F0001D05120EE0EF05350D926B1
:100138005450DA22DF2A20EE0DF05350D9265450BD
:10014800DA22040EDF6EC7A00AD0C9CFD8F00001AA
:10015800D06F010E00010001DA6F0001D0510001DB
:100168000001D66774D160D1C7A671D10001000122
:10017800DA51E3EC06F020EE0CF05350D926545037
:10018800DA22080EDF6263D10001D06F000E000191
:100198000001DA6F0001D0510001D06F010E00019B
:1001A8000001D76F36D1C7A827D020EE0BF05350E7
:1001B800D9265450DA22DF2A00010001DA51D8B4D6
:1001C8002BD1C7BA09D00001D06F010E0001000180
:1001D800D96F0001D05120D120EE0EF05350D9260E
:1001E8005450DA22DF2A20EE0DF05350D92654500D
:1001F800DA22060EDF6E10D100010001DA51D8B400
:1002080026D120EE0BF05350D9265450DA22DF2A9B
:10021800C7BA13D0C7B408D020EE0CF05350D92673
:100228005450DA22070E5AD020EE0CF05350D9263B
:100238005450DA22080EDF6EDED020EE0EF0535056
:10024800D9265450DA22DF2A20EE0CF05350D92652
:100258005450DA22050EDF6E20EE0DF05350D926E9
:100268005450DA22060E3AD020EE1AF05350D9260E
:100278005450DA22DF500001D06F20EE19F05350AD
:10028800D9265450DA22DF500001D05DD8B0C4D04E
:1002980020EE1AF05350D9265450DA22DF500001CC
:1002A800D06F0001D051010D0F0EF326000EF4227D
:1002B800F3505324D96EF4505420DA6EDF50C96ECF
:1002C80020EE1AF05350D9265450DA22DF2A0001C2
:1002D800D06F010E00010001D56F9BD0DF6EB7D043
:1002E800C7A84CD020EE0BF05350D9265450DA2230
:1002F800DF2A00010001DA51D8B437D0C7AA1DD0CF
:1003080020EE0AF05350D9265450DA22DF5000016B
:10031800D06F0001D051010DF3505324D96EF45021
:100328005420DA6E0001D8C0DFFF20EE0AF05350E7
:10033800D9265450DA22DF2A18D020EE0EF0535076
:10034800D9265450DA22DF2A20EE0DF05350D92650
:100358005450DA22060EDF6E20EE0CF05350D926E8
:100368005450DA22050EDF6E57D00001D06F010E0F
:1003780000010001D96F0001D0514ED000010001E9
:10038800DA51D8B464D020EE0BF05350D92654502B
:10039800DA22DF2AC7AA1DD020EE0AF05350D92648
:1003A8005450DA22DF500001D06F0001D051010D06
:1003B800F3505324D96EF4505420DA6E0001D8C09B
:1003C800DFFF20EE0AF05350D9265450DA22DF2AF4
:1003D8003ED0C7A401D720EE0CF05350D926545074
:1003E800DA22080EDF6E0001D06F010E0001000155
:1003F800D96F0001D0510001D06F010E000100013A
:10040800D76F0001D0510001D06F000E000100012C
:10041800DA6F0001D0511BD020EE0CF05350D926D2
:100428005450DA22050E5AD720EE0CF05350D92634
:100438005450DA22DF50050AD8B496D6030AD8B445
:10044800B2D6010AD8B44CD70F0AD8B40DD70001D8
:100458000001DA6705D000010001D551D8B402D0F7
:10046800C6A8C68820EE0AF05350D9265450DA227E
:10047800080EDF641BD000010001D96717D020EEF9
:100488000CF05350D9265450DA22050EDF6E20EEB8
:100498000EF05350D9265450DA22DF2A20EE0DF000
:1004A8005350D9265450DA22070EDF6E000100019E
:1004B800D951D8B438D020EE0BF05350D926545027
:1004C800DA2210EE0AF05350E1265450E222E750A7
:1004D8000001D06F0001D051010DF3505324E16E9B
:1004E800F4505420E26EDFCFE7FF0001D06F280EF2
:1004F80000010001CC6F0001D051000154C0CEF0C2
:10050800000153C0CDF020EE0AF05350D9265450C4
:10051800DA22DF500001D16F0001D129A3EC0BF0E2
:1005280020EE0AF03ED020EE0EF05350D92654505B
:10053800DA22DF50D8B43BD020EE0EF05350D92643
:100548005450DA22DF5000010001D26F20EE0DF086
:100558005350D9265450DA22DF5000010001D36FDE
:1005680020EE0BF05350D9265450DA22DF50000108
:100578000001D46F0001D06F290E00010001CC6F7B
:100588000001D0510001000E00010001CE6F0001F2
:10059800D20E00010001CD6F030EA3EC0BF020EE8C
:1005A8000EF05350D9265450DA22000EDF6E0001A7
:1005B8000001D751D8B4120000EC09F01200010173
:1005C800C86F000E01010101D46F0101C85101017A
:1005D800C86F000E01010101D56F0101C851010169
:1005E800C86F000E01010101D66F0101C851820ECA
:1005F800D36E9B8C0101010E01010101A56F010160
:10060800D90E01010101A46F43EC0CF00101010EA8
:1006180001010101A56F0101E20E01010101A46FB1
:100628003FEC0AF00101010E01010101A56F010172
:10063800DE0E01010101A46F75EC0CF075EC09F0F8
:10064800000E936E000E8A6ED30E08EC0CF0F50EB9
:1006580051EC0BF09F909F9A9F869E0E1DEC0CF01C
:100668009D869D8A000E01010101A56F190E0101E9
:10067800A46F6C0E31EC07F0000E01010101016F4F
:10068800000E0101006FABEC0CF047EC08F0010123
:10069800010E01010101BD6F0101E10E010101011E
:1006A800BC6F0101010E01010101BF6F0101C90EFB
:1006B80001010101BE6F0A0EEFEC0AF00101010110
:1006C800E06F01010101E0BF30D029D00101010E26
:1006D80001010101A56F0101D70E01010101A46FFC
:1006E80001010101E1C1A6F101010101A76B0101AD
:1006F8000101E05101010101A86F0101A96B01018C
:10070800A8BFA9070101010E01010101AB6F010199
:10071800C90E01010101AA6F6CEC0CF006D00101B1
:100728000101E1510A0AD8B4D1D70101010E010132
:100738000101BD6F0101E10E01010101BC6F010161
:10074800010E01010101BF6F0101C90E0101010183
:10075800BE6F0A0ECEEC0AF001010101E06F010143
:100768000101E0BF92D729D00101010E0101010169
:10077800BF6F0101DE0E01010101BE6F0101010120
:10078800E1C1C0F101010101C16B01010101E051A9
:1007980001010101C26F0101C36B0101C2BFC3079F
:1007A8000101010E01010101C56F0101C90E01011D
:1007B8000101C46F3CEC09F068D701010101E15166
:1007C8000B0AD8B4D1D7150A60D7010120EE35F04D
:1007D8000101AE51D9260101AF51DA22DF500101E2
:1007E8000101B76F01010101B7510D0DF35001016E
:1007F8000101AE2501010101BA6FF45001010101A7
:10080800AF210101BB6F010EBAC1D9FFBBC1DAFF2D
:10081800DF6274D0010120EE01F00101BA51D9263E
:100828000101BB51DA22DF5001010101B05DD8B0EE
:1008380002D0FD0E1200010120EE01F00101BA51B3
:10084800D9260101BB51DA22DF500101B56F010140
:10085800B55101010101B86F0101B96B0101010135
:10086800B4C1A5F101010101B3C1A4F1030E010155
:100878000101BA250101B56F000E01010101BB217B
:100888000101B66FB5C1A6F1B6C1A7F1B8C1A8F10B
:10089800B9C1A9F1E1EC09F0010120EE35F001013F
:1008A800AE51D9260101AF51DA22010110EE35F01F
:1008B8000101AE51E1260101AF51E222E7500101E9
:1008C800B56F0101B529030BDF6E010120EE02F0BF
:1008D8000101BA51D9260101BB51DA22B1C1E1FFA8
:1008E800B2C1E2FFDFCFE7FFBAC1D9FFBBC1DAFF70
:1008F800000EDF6E01010101B8511200FC0E12005A
:10090800000120EE35F00001C051D9260001C15187
:10091800DA22DF5000010001C96F00010001C9514E
:100928000D0DF35000010001C02500010001CC6F3E
:10093800F45000010001C1210001CD6F010ECCC0AF
:10094800D9FFCDC0DAFFDF6274D0000120EE01F0DC
:100958000001CC51D9260001CD51DA22DF50000127
:100968000001C25DD8B002D0FD0E1200000120EED9
:1009780001F00001CC51D9260001CD51DA22DF5017
:100988000001C76F0001C75100010001CA6F0001D3
:10099800CB6B00010001C6C0B7F000010001C5C063
:1009A800B6F0030E00010001CC250001C76F000E50
:1009B80000010001CD210001C86FC7C0B8F0C8C050
:1009C800B9F0CAC0BAF0CBC0BBF010EC0AF0000115
:1009D80020EE35F00001C051D9260001C151DA22BC
:1009E800000110EE35F00001C051E1260001C151AF
:1009F800E222E7500001C76F0001C729030BDF6E31
:100A0800000120EE02F00001CC51D9260001CD51A1
:100A1800DA22C3C0E1FFC4C0E2FFDFCFE7FFCCC0EA
:100A2800D9FFCDC0DAFF000EDF6E00010001CA5108
:100A38001200FC0E120001010101B0C1B5F1010163
:100A48000101B66B010120EE34F00101AE51D92647
:100A58000101AF51DA22DF5001010101B76F010135
:100A68000101B7510D0DF35001010101AE2501013E
:100A78000101B86FF45001010101AF210101B96F03
:100A8800B8C1D9FFB9C1DAFFDF50D8B402D0FF0E20
:100A98001200010120EE01F00101B851D92601012F
:100AA800B951DA220101B0C1DFFF010120EE02F0E5
:100AB8000101B851D9260101B951DA220101B1C1A8
:100AC800DFFF030E01010101B82501010101A46F37
:100AD800000E01010101B9210101A56F0101010108
:100AE800B3C1A7F101010101B2C1A6F1B5C1A8F1D5
:100AF800B6C1A9F1E1EC09F0010120EE34F00101E1
:100B0800AE51D9260101AF51DA22010110EE34F0BD
:100B18000101AE51E1260101AF51E222E750010186
:100B2800B46F0101B429030BDF6EB8C1D9FFB9C195
:100B3800DAFF010EDF6E010E120000010001C2C0D3
:100B4800C7F000010001C86B000120EE34F000017D
:100B5800C051D9260001C151DA22DF50000100013D
:100B6800C96F00010001C9510D0DF35000010001CA
:100B7800C02500010001CA6FF45000010001C12125
:100B88000001CB6FCAC0D9FFCBC0DAFFDF50D8B4A1
:100B980002D0FF0E1200000120EE01F00001CA5140
:100BA800D9260001CB51DA220001C2C0DFFF0001C3
:100BB80020EE02F00001CA51D9260001CB51DA22F9
:100BC8000001C3C0DFFF030E00010001CA250001B8
:100BD8000001B66F000E00010001CB210001B76FC4
:100BE80000010001C5C0B9F000010001C4C0B8F09F
:100BF800C7C0BAF0C8C0BBF010EC0AF0000120EE84
:100C080034F00001C051D9260001C151DA22000197
:100C180010EE34F00001C051E1260001C151E2227A
:100C2800E7500001C66F0001C629030BDF6ECAC07A
:100C3800D9FFCBC0DAFF010EDF6E010E1200E8CF3C
:100C4800BAF020EE19F05350D9265450DA22000E8B
:100C5800DF6E35D020EE19F05350D9265450DA22E1
:100C6800DF500001B86F0001B851010DF3500001C9
:100C78000001B625D96EF45000010001B721DA6EE3
:100C880010EE19F05350E1265450E222E7500001CB
:100C9800B96F0001B951010D0F0EF326000EF422B1
:100CA800F3505324E16EF4505420E26EDFCFE7FF97
:100CB80020EE19F05350D9265450DA22DF2A20EEBC
:100CC80019F05350D9265450DA22DF500001B86F7A
:100CD80000010001BA510001B85DD8A0BBD720EED1
:100CE80019F05350D9265450DA220001BAC0DFFF58
:100CF80020EE1AF05350D9265450DA22010EDF6E36
:100D080020EE0FF05350D9265450DA22DF50C96E26
:100D1800C68812000DC012F0136A20EE34F00B5092
:100D2800D9260C50DA22DF50146E14500D0DF350F2
:100D38000B24156EF4500C20166E15C0D9FF16C082
:100D4800DAFFDF50D8B402D0FF0E120020EE01F017
:100D58001550D9261650DA220DC0DFFF20EE02F01A
:100D68001550D9261650DA220EC0DFFF030E1524BF
:100D7800016E000E1620026E10C004F00FC003F0C2
:100D880012C005F013C006F031EC0BF020EE34F081
:100D98000B50D9260C50DA2210EE34F00B50E12615
:100DA8000C50E222E750116E1128030BDF6E15C0BC
:100DB800D9FF16C0DAFF010EDF6E010E1200E8CF70
:100DC800B6F020EE0BF05350D9265450DA22010E1B
:100DD800DF6E20EE0AF05350D9265450DA22000E66
:100DE800DF6E00010001B651D8B42ED0C7AA18D0C2
:100DF80020EE0CF05350D9265450DA22050EDF6E3F
:100E080020EE0EF05350D9265450DA22DF2A20EE75
:100E18000DF05350D9265450DA22050EDF6E120019
:100E2800C7A409D020EE0CF05350D9265450DA222A
:100E3800080EDF6E120020EE0CF05350D9265450E5
:100E4800DA22070EDF6E120020EE0CF05350D9267E
:100E58005450DA22060EDF6E1200E8CFA9F1000E18
:100E6800AC6E000EAB6E01010101A9B1AC880101A5
:100E78000101A9A302D0AC8CAB8C01010101A9B579
:100E8800AC8E01010101A9A702D0AB8801D0AB8AC1
:100E980001010101A9B9AC849E9801010101A9BB16
:100EA800AB8601010101A9AD02D09D8A01D09D9AAE
:100EB8009E9A01010101A9AF02D09D8801D09D9899
:100EC800A4C1AFFF0101A5C1A6F1A6C1A7F1010107
:100ED800A86B0101A751B06EAC8AAB8E949C948E1E
:100EE800ACA81200ACBE1200948C12008A828A92BE
:100EF800000E00010001B76F000E0001B66F99ECFB
:100F08000CF00001000E00010001CF6F0001D60EA9
:100F180000010001CE6F0001000E00010001D16F39
:100F28000001D80E00010001D06F020E10EC0BF08A
:100F380000010001D46F0001D56B0001D4BFD507B3
:100F480000010001D451020AD511D8A412000001F1
:100F5800D36F0A0E00010001CC6F0001D3510001CC
:100F6800000E00010001CE6F0001D80E0001000143
:100F7800CD6F020EA3EC0BF0120001010101A75185
:100F8800A611D8B43AD00101A86F010E01010101E0
:100F9800A96F0101A85109D0010101010101D890EF
:100FA800A637A73701010101A92B01010101A7AF4C
:100FB800F3D701010101A65101010101A45D01015D
:100FC8000101A75101010101A559D8A00CD00101C7
:100FD8000101A65101010101A45F01010101A7510D
:100FE80001010101A55B010101010101D890A733AD
:100FF800A63301010101A92FDCD7A4C1A4F1A5C121
:10100800A5F11200E9CFDDF0EACFDEF0E1CFDFF0A5
:10101800E2CFE0F0D9CFE1F0DACFE2F0F3CFE3F0BE
:10102800F4CFE4F0F6CFE5F0F7CFE6F0F8CFE7F04D
:10103800F5CFE8F09EA603D09E965DEC00F0F2A4F2
:1010480003D0F2947AEC07F0ACEC09F0E8C0F5FFB5
:10105800E7C0F8FFE6C0F7FFE5C0F6FFE4C0F4FF1D
:10106800E3C0F3FFE2C0DAFFE1C0D9FFE0C0E2FF6E
:10107800DFC0E1FFDEC0EAFFDDC0E9FFDCC0FBFF47
:10108800DBC0FAFF1100ACEC0AF001010101A95123
:101098000101A811D8B412000101AA6F010E4D6E0A
:1010A8000101AA510101010E01010101A56F010110
:1010B8006E0E01010101A46F88EC0BF00009D8B491
:1010C80007D00101AA6F000E4D6E0101AA5112004E
:1010D8000001000E01010101A56F0001800E010150
:1010E8000101A46F88EC0BF00009D8B407D0010106
:1010F800AA6F000E4D6E0101AA5112000A0E61EC92
:101108000CF0D0D7010120EE34F00101A451D9260A
:101118000101A551DA22000EDF6E010120EE35F043
:101128000101A451D9260101A551DA22000EDF6E72
:101138000101A66F000E01010101A76F0101A6516F
:10114800030E01010101A76501D01200010101018F
:10115800A7510D0DF35001010101A425D96EF450DA
:1011680001010101A521DA6E000EDF6E0101010106
:10117800A72B030E01010101A765E8D712009EAA5B
:101188002BD020EE04F05550D9265650DA22DF50E5
:101198001B6E1B50010DF3505524D96EF450562088
:1011A800DA6E52EC0CF0DF6E20EE04F05550D926C2
:1011B8005650DA22DF2A20EE04F05550D926565030
:1011C800DA22040EDF6208D020EE04F05550D9264A
:1011D8005650DA22000EDF6E4EA61200AB98AB888E
:1011E8001B6E1E0E176E1B50000E196E000E186E29
:1011F800000E31EC0CF012000001BB6F010E000173
:101208000001BC6F0001BB510001BB6F020E000161
:101218000001BD6F0001BB510001BB6F030E00014F
:101228000001BE6F0001BB510001BB6F040E00013D
:101238000001BF6F0001BB510001BB6F050E00012B
:101248000001C06F0001BB510001BB6F050E506E5D
:101258000001BB510001000E00010001B76F000141
:10126800BC0E00010001B66F505023EC06F01200CE
:10127800BEC1D9FFBFC1DAFFDE2A000EDD22BEC122
:10128800D9FFBFC1DAFF0101DECFA4F10101DDCF33
:10129800A5F1000E01010101A76F0A0E0101A66F59
:1012A800C1EC07F001010101A451090A0101A511CE
:1012B800D8A412000101C66F140E01010101BA6F12
:1012C8000101C65101010101BFC1BCF101010101C8
:1012D800BEC1BBF1020E6DEC0BF001010101C76F3D
:1012E80012000101A86F000E4D6E0101A851000106
:1012F800000E01010101A56F0001800E010101012D
:10130800A46F86EC08F00101010E01010101A56F2F
:1013180001016E0E01010101A46F86EC08F00101C4
:10132800010E01010101A56F0101380E0101010142
:10133800A46F86EC08F00101010E01010101A56FFF
:101348000101020E01010101A46F86EC08F01200F0
:101358004D6601D0120089EC0AF000010001B95174
:101368000001B811D8A41200A2EC0CF00001000191
:10137800B7510001B611D8B412000101010E0001E5
:101388000001B76F01016E0E00010001B66FBEECDF
:101398000BF00009D8A412000001000E00010001A2
:1013A800B76F0001800E00010001B66FBEEC0BF0B4
:1013B8000009D8B4AFEC0CF0120001010101A7C17B
:1013C800ADF101010101A6C1ACF101010101A5C105
:1013D800ABF101010101A4C1AAF112D0ACC1D9FF3E
:1013E800ADC1DAFFAAC1E1FFABC1E2FFDFCFE7FF82
:1013F80001010101AC4BAD2B01010101AA4BAB2B43
:1014080001010101A807D8A0A9070101A829D8B49A
:10141800A929D8B41200E2D700010001B9C0BFF071
:1014280000010001B8C0BEF000010001B7C0BDF066
:1014380000010001B6C0BCF012D0BEC0D9FFBFC0C9
:10144800DAFFBCC0E1FFBDC0E2FFDFCFE7FF00016C
:101458000001BE4BBF2B00010001BC4BBD2B00019E
:101468000001BA07D8A0BB070001BA29D8B4BB2924
:10147800D8B41200E2D70101A5C154F00101A4C1FA
:1014880053F020EE0AF05350D9265450DA22000EB9
:10149800DF6E20EE0BF05350D9265450DA22000E9E
:1014A800DF6E20EE0CF05350D9265450DA22050E88
:1014B800DF6E20EE0EF05350D9265450DA22000E7B
:1014C800DF6E1200F2AC08D0000E01010101A76F17
:1014D800000E0101A66F12007EEC0CF00101010163
:1014E800A5510101A411D8B408D0000E01010101D1
:1014F800A76F000E0101A66F1200000E0101010185
:10150800A76F010E0101A66F1200F2AC08D0000E01
:1015180000010001B96F000E0001B86F1200A2ECC3
:101528000CF000010001B7510001B611D8B408D081
:10153800000E00010001B96F000E0001B86F120023
:10154800000E00010001B96F010E0001B86F120012
:1015580066EC0AF001010101A7510101A611D8A406
:1015680011D07EEC0CF001010101A5510101A4117B
:10157800D8A408D0000E01010101A96F010E0101D4
:10158800A86F1200000E01010101A96F000E0101F0
:10159800A86F1200E8CFC0F10001000E010101019F
:1015A800AF6F0001800E01010101AE6FC0C1B0F143
:1015B80001010101BDC1B2F101010101BCC1B1F1DB
:1015C80001010101BFC1B4F101010101BEC1B3F1C3
:1015D800E9EC03F01200E8CFC0F10101010E0101AE
:1015E8000101AF6F01016E0E01010101AE6FC0C1B3
:1015F800B0F101010101BDC1B2F101010101BCC19C
:10160800B1F101010101BFC1B4F101010101BEC184
:10161800B3F1E9EC03F01200E8CFD2F00101010EBA
:1016280000010001C16F0101020E00010001C06F3D
:10163800D2C0C2F000010001CFC0C4F00001000117
:10164800CEC0C3F000010001D1C0C6F00001000106
:10165800D0C0C5F084EC04F0120004C00AF003C046
:1016680009F002C008F001C007F00ED009C0D9FF88
:101678000AC0DAFF07C0E1FF08C0E2FFDFCFE7FFDB
:10168800094A0A2A074A082A0506D8A0060605288C
:10169800D8B40628D8B41200E9D7E8CFA4F10101DC
:1016A8000101A4517E0BCD6E01010101A4AD02D050
:1016B800CD8E01D0CD9E000ECF6E000ECE6E9E90C8
:1016C80001010101A4AF02D09D8001D09D90CD8081
:1016D8001200E8CFBDF10101010E01010101AF6F58
:1016E8000101020E01010101AE6FBDC1B0F1BAC125
:1016F800B1F101010101BCC1B3F101010101BBC19B
:10170800B2F11FEC05F01200010120EE35F00101E5
:10171800A451D9260101A551DA22DF500101A66F93
:101728000101A6510D0DF35001010101A425D96E47
:10173800F45001010101A521DA6EDF501200E8CF53
:10174800CFF00101010E00010001C16F01016E0E11
:1017580000010001C06FCFC0C2F0CCC0C3F00001CF
:101768000001CEC0C5F000010001CDC0C4F0A1EC5D
:1017780005F01200000120EE35F00001B651D9261F
:101788000001B751DA22DF500001B86F0001B851EB
:101798000D0DF35000010001B625D96EF45000017B
:1017A8000001B721DA6EDF50120090EC0CF001C096
:1017B8001CF002C01DF01B6E0B0E176E1B50000EA6
:1017C800196E000E186E000E31EC0CF0000E026E51
:1017D800000E016E87EC0CF0120001EE00F0A40E72
:1017E800EE6AE806FDE100EE80F0360EEE6AE806E5
:1017F800FDE100EE2FF0240EEE6AE806FDE1000E92
:10180800F86E0001E3EF02F0E8CFA4F10101010155
:10181800A4517F0BD56E000ED76E000ED66EF294D3
:1018280001010101A4AF02D0F28A01D0F29AD58E4B
:101838001200E8CFA4F194869488A4C1C8FF000ED2
:10184800C76E000EC66E000EC56E0E0EC612C78E8F
:1018580094869488C580C68A1200E8CF1AF00001E1
:10186800000E0C6E0001800E0B6E1AC00DF017C032
:101878000EF0106A18C00FF08EEC06F0120001018D
:10188800A5C156F00101A4C155F020EE04F0555051
:10189800D9265650DA22000EDF6E1200F20E4E16CE
:1018A800ABAC03D04E90ABB04E80ABB44E84ABB271
:1018B8004E86AECF01F001501200E8CFA4F1FA0E27
:1018C80000F0E82EFDD701010101A42FF8D712007E
:1018D80001010101ABC1ADF101010101AAC1ACF1E6
:1018E8001200A4C1D9FFA5C1DAFF000EDE6E000EFA
:1018F800DD6E1200000EF2AE010E01010101A46FAF
:101908000101A56B120001C003F002C004F004C07D
:10191800CFFF03C0CEFF1200CECF03F0CFCF04F02D
:1019280003C001F004C002F01200B6C0B8F0B7C09E
:10193800B9F0B9C0D7FFB8C0D6FF1200000EF2AE9A
:10194800010E00010001B66F0001B76B1200D08EC6
:0C195800F28EF28C1200D38E03001200FD
:067FF80080F4C5FFFFF15B
:00000001FF
